:020000040000FA
:060000007DEF16F0120076
:020006001200E6
:0600080068EF04F0120095
:02000E000100EF
:0C001000422D00002A0F00000800000034
:04001C00D9CFE6FF53
:10002000E1CFD9FF010EF36EFC0EDB5004E0D89057
:10003000F336E806FCE1F350146EFD0EDBCFE9FF6A
:10004000FE0EDBCFEAFFEF50141400D0E552E7CFED
:10005000D9FF1200D9CFE6FFE1CFD9FF010EF36E31
:10006000FC0EDB5004E0D890F336E806FCE1F350D8
:10007000146EFD0EDBCFE9FFFE0EDBCFEAFF14505E
:10008000EF12E552E7CFD9FF1200D9CFE6FFE1CF5B
:10009000D9FF010EF36EFC0EDB5004E0D890F3366E
:1000A000E806FCE1F350E81C146EFD0EDBCFE9FF1F
:1000B000FE0EDBCFEAFF1450EF16E552E7CFD9FF73
:1000C000120096901200D9CFE6FFE1CFD9FFFD0EC6
:1000D000DB50E8B08D80E8A08D90E552E7CFD9FFE6
:1000E000120096941200D9CFE6FFE1CFD9FFFD0EA2
:1000F000DB50E8B08D84E8A08D94E552E7CFD9FFBE
:10010000120096921200D9CFE6FFE1CFD9FFFD0E83
:10011000DB50E8B08D82E8A08D92E552E7CFD9FFA1
:10012000120096961200D9CFE6FFE1CFD9FFFD0E5F
:10013000DB50E8B08D86E8A08D96E552E7CFD9FF79
:10014000120096981200D9CFE6FFE1CFD9FFFD0E3D
:10015000DB50E8B08D88E8A08D98E552E7CFD9FF55
:1001600012009896120098981200D9CFE6FFE1CFBE
:10017000D9FFFE0EDB50090A4BE0010A43E00F0AEB
:100180003BE0010A33E0030A2BE0010A23E0070AFF
:100190001BE0010A13E0030A0BE0010A03E019EC7B
:1001A00005F03CD0A70EE66E40EC16F0E55236D0D6
:1001B000AF0EE66E40EC16F0E55230D0B70EE66EAC
:1001C00040EC16F0E5522AD0BF0EE66E40EC16F079
:1001D000E55224D0C70EE66E40EC16F0E5521ED074
:1001E000CF0EE66E40EC16F0E55218D0D70EE66E54
:1001F00040EC16F0E55212D0DF0EE66E40EC16F041
:10020000E5520CD0E70EE66E40EC16F0E55206D053
:10021000EF0EE66E40EC16F0E55200D0E552E7CF67
:10022000D9FF1200D9CFE6FFE1CFD9FF020EE126B8
:10023000DE6ADD6AFE0EDB50090A37E0010A31E0B2
:100240000F0A2BE0010A25E0030A20E0010A1AE068
:10025000070A14E0010A0EE0030A08E0010A02E0BE
:10026000E8DB27D0090EDE6EDD6A23D0070EDE6ED6
:10027000DD6A1FD0050EDE6EDD6A1BD0030EDE6E5A
:10028000DD6A17D0010EDE6EDD6A13D0DE68DD6830
:1002900010D0FD0EDE6EDD680CD0FB0EDE6EDD686C
:1002A00008D0F90EDE6EDD6804D0F70EDE6EDD6874
:1002B00000D0D9CFE9FFDACFEAFF640EEC02F3CF2A
:1002C000EDFFEF02F3CFEEFFF450ED26DECF14F09A
:1002D000DDCF15F014C0F3FF15C0F4FF020EE15C92
:1002E00003E200D0E16AE552E16EE552E7CFD9FFC3
:1002F0001200F28E1200F28C1200F2881200F086C8
:100300001200D9CFE6FFE1CFD9FF060EE126FB0EA2
:10031000DBCFDEFFDBCFDDFF010EE76EFB0EDBCFB9
:1003200014F0FC0EDBCF15F0E7501426000E15225A
:10033000020E14C0DBFF030E15C0DBFFFD0EDBCF8A
:1003400014F0FE0EDBCF15F0000E1416FF0E15167E
:1003500015C014F0156A040E14C0DBFFFF0EE76E23
:10036000FD0EDBCF14F0FE0EDBCF15F0E7501416B8
:10037000156A050E14C0DBFF9CEC16F0040EDBCFF3
:10038000E6FFDECFE6FFDDCFE6FFFEEC13F0E55241
:10039000E552E552010EE66E32EC09F0E5529CECB6
:1003A00016F0050EDBCFE6FF020EDBCFE6FF030EF5
:1003B000DBCFE6FFFEEC13F0E552E552E552010E0D
:1003C000E66E32EC09F0E5529CEC16F0060EE15CAC
:1003D00002E2E16AE552E16EE552E7CFD9FF120091
:1003E000D9CFE6FFE1CFD9FF080EE126FD0EDBCF26
:1003F00008F0FE0EDBCF09F0020E08C0DBFF030E93
:1004000009C0DBFF010EE76EFD0EDBCF14F0FE0E20
:10041000DBCF15F0E7501426000E1522040E14C091
:10042000DBFF050E15C0DBFF9CEC16F0020EDBCFE8
:10043000E6FF030EDBCFE6FF07EC15F0E552E552D1
:10044000E76E060EE7CFDBFF9CEC16F0040EDBCF69
:10045000E6FF050EDBCFE6FF07EC15F0E552E552AF
:10046000E76E070EE7CFDBFF9CEC16F0070EDBCF45
:10047000E6FF060EDB50000EF350E552E710DE6E8D
:10048000DD6ADECF14F0DDCF15F014C0F3FF15C028
:10049000F4FF080EE15C03E200D0E16AE552E16E90
:1004A000E552E7CFD9FF1200D9CFE6FFE1CFD9FF60
:1004B000030EE126DF6A010EDB6A020EDB6ADBCF88
:1004C00014F0090EE76E1418E8AE02D0E73402D03B
:1004D000E750145C1FE2FC0EDBCF14F0FD0EDBCF07
:1004E00015F0FE0EDBCF16F006D016C0FBFF15C0D0
:1004F000FAFF1450F96EF9DF000902E0DF2A02D09A
:10050000010EDB2A0A0EE66E32EC09F0E552020E0D
:10051000DB2AD5D7DFCF14F0010EDB50E76E1418BD
:10052000E8AE02D0143403D0E750D880145402E36C
:10053000000E01D0010E146E030EE15C03E200D048
:10054000E16AE552E16E1450E552E7CFD9FF12009F
:10055000969A1200D9CFE6FFE1CFD9FFFE0EDB500D
:10056000E8B08D8AE8A08D9AE552E7CFD9FF120056
:10057000969C1200D9CFE6FFE1CFD9FFFE0EDB50EB
:10058000E8B08D8CE8A08D9CE552E7CFD9FF120032
:10059000010E00D01200000E00D01200D9CFE6FFED
:1005A000E1CFD9FF020EE126D950FD0FE96EFF0E13
:1005B000DA20EA6EFF0EEE5E7F0EED5AFD0EDBCF07
:1005C00014F0FE0EDBCF15F00001800E151410E0C4
:1005D00008680968FD0EDBCF0DF0FE0EDBCF0EF0D4
:1005E00082EC13F0FD0E06C0DBFFFE0E07C0DBFF42
:1005F000FD0EDBCFDEFFDBCFDDFFDECF14F0DDCF86
:1006000015F0D8901436153614C0DEFF15C0DDFF86
:10061000DECF14F0DDCF15F0060ED890153214326F
:10062000E804FBE114C0DEFF15C0DDFFDECF14F0EF
:10063000DDCF15F014C0F3FF15C0F4FF020EE15C2E
:1006400003E200D0E16AE552E16EE552E7CFD9FF5F
:100650001200D9CFE6FFE1CFD9FFFE0EDB5016E046
:10066000000EE66EE66A6FDDE552E552E668E66882
:10067000D8EC14F0E552E552E668E668A9EC14F00F
:10068000E552E5520F01010E2F6F08D0010EE66E04
:10069000E66A59DDE552E5520F012F6BE552E7CFCF
:1006A000D9FF1200D9CFE6FFE1CFD9FF020EE12634
:1006B000FD0EDBCFE6FFFE0EDBCFE6FF6FDFE55280
:1006C000E552F3CFDEFFF4CFDDFFFC0EDB50020A74
:1006D00018E0030A0DE0010A02E0ABD923D0DECF17
:1006E000E6FFDDCFE6FFD8EC14F0E552E5521AD074
:1006F000DECFE6FFDDCFE6FFA9EC14F0E552E552D0
:1007000011D0DECFE6FFDDCFE6FFD8EC14F0E552E6
:10071000E552DECFE6FFDDCFE6FFA9EC14F0E552AF
:10072000E55200D0020EE15C02E2E16AE552E16EC0
:10073000E552E7CFD9FF1200D9CFE6FFE1CFD9FFCD
:10074000040EE126FE0EDB50010A1BE0010A02E066
:1007500070D92ED0870EE66E40EC16F0E55283D9A4
:10076000F3CFDEFFF4CFDDFF8F0EE66E40EC16F028
:10077000E55279D9020EF3CFDBFF030EF4CFDBFF96
:1007800017D0970EE66E40EC16F0E5526CD9F3CF19
:10079000DEFFF4CFDDFF9F0EE66E40EC16F0E55273
:1007A00062D9020EF3CFDBFF030EF4CFDBFF00D0E4
:1007B000DECF16F0DDCF17F0020EDB50165C146EA4
:1007C000030EDB501758156E14C0F3FF15C0F4FF6D
:1007D000040EE15C03E200D0E16AE552E16EE5520D
:1007E000E7CFD9FF1200000EE66EE66ABCEC15F00A
:1007F000E552E5521200900EE66ED8EC15F0E55287
:10080000F28AF3EF03F09DEC15F0F3CF30FFF4CF55
:1008100031FF30CFF3FF31CFF4FF00D0120099EF5A
:1008200016F07D0EE66EF4EC15F0E5529ADC9BDCDA
:10083000E6687BEC15F0E552E66859EC15F0E552F8
:10084000020EE66E000EE66EE66A2CDFE552E55219
:10085000E552120076DC010EE66EE66A74DCE552C3
:10086000E55212002EDC000EE66EE66A2CDCE55244
:10087000E55247DC010EE66EE66A45DCE552E552DC
:1008800012002FDC000EE66EE66A2DDCE552E55222
:1008900048DC010EE66EE66A46DCE552E5521200DF
:1008A000E66A7C0EE66EE30EE66E72EC14F0E5523C
:1008B000E552E55212000C0EE66E040EE66EE30EF3
:1008C000E66E72EC14F0E552E552E552976A1200BA
:1008D000DACFE4FFE2CFDAFFE9CFE4FFEACFE4FFCB
:1008E000F6CFE4FFF7CFE4FFF8CFE4FFF5CFE4FF66
:1008F000F3CFE4FFF4CFE4FFFACFE4FFFBCFE4FF54
:1009000000EE00F0140EE80403E3EECFE4FFFBD7A3
:1009100000EE14F00C0EE80403E3EECFE4FFFBD787
:10092000E652D9CFE6FFE1CFD9FFE652F2A218D0C6
:10093000500EE66E120EE66E000EE66EB5DDE55266
:10094000E552E55200090BE00F012E5102E02E6B3B
:1009500002D0010E2E6F2ECFE6FFFCDDE552F292A3
:10096000F0A018D0580EE66E120EE66E000EE66E7F
:100970009BDDE552E552E55200090BE00F012D51D8
:1009800002E02D6B02D0010E2D6F2DCFE6FFF2DDC0
:10099000E552F090F2A421D0010EDF6E020EE66E59
:1009A000000EE66EE66A7EDEE552E552E552DFCFE6
:1009B000E6FFD0DDE552DF5002E0000E01D0010E6F
:1009C000E66ED8DDE55246EC09F0DF5002E0000E9D
:1009D00001D0010EDF6EEBD7F294E552E552E7CF7E
:1009E000D9FFE55200EE1FF00C0EE80403E3E5CF5B
:1009F000EDFFFBD700EE13F0140EE80403E3E5CFA0
:100A0000EDFFFBD7E5CFFBFFE5CFFAFFE5CFF4FF26
:100A1000E5CFF3FFE5CFF5FFE5CFF8FFE5CFF7FF33
:100A2000E5CFF6FFE5CFEAFFE5CFE9FFE5CFDAFF57
:100A30001100120062DC63DC5EDC79EF01F088DD1E
:100A4000E66A88DDE55294DDE66A94DDE55212003F
:100A5000E8DE08DF16DFFEDEF2DFE66AFADDE552E9
:100A6000E9DF50EF04F0D9CFE6FFE1CFD9FF020E66
:100A7000E1269FEC16F094EC16F0000901E0FBD79C
:100A80008BEC16F0F3CFDEFFF4CFDDFFDECF14F0FA
:100A9000DDCF15F014C0F3FF15C0F4FF020EE15CCA
:100AA00003E200D0E16AE552E16EE552E7CFD9FFFB
:100AB0001200D9CFE6FFE1CFD9FF070EE126030EE2
:100AC000DB6A040EDB6ADF6A0A0EDF5C1CE2176A6F
:100AD000DF34FE0B1736166EFD0EDB501624E96E62
:100AE000FE0EDB501720EA6EEECF14F0EFCF15F0BC
:100AF000D950030FE96EDACFEAFF1450EE261550F5
:100B0000ED22DF2AE1D70A0E146E156A030EDBCF41
:100B100008F0040EDBCF09F014C00DF015C00EF084
:100B200028EC13F0DE5208C0DEFF09C0DDFFDD5205
:100B3000010EDBCF16F0020EDBCF17F0010EDBCF7C
:100B40001CF0020EDBCF1DF01E6A1F6A1DAE02D024
:100B50001E681F68FB0EDBCF18F0FC0EDBCF19F010
:100B60001A6A1B6A19AE02D01A681B68640E0B6EF3
:100B70000C6A0D6A0E6A18C006F019C007F01AC098
:100B800008F01BC009F03AEC14F002C018F003C0E2
:100B900019F004C01AF005C01BF018C006F019C007
:100BA00007F01AC008F01BC009F01CC00BF01DC0F4
:100BB0000CF01EC00DF01FC00EF04EEC13F01650DE
:100BC0000624146E17500720156E050E14C0DBFFA7
:100BD000060E15C0DBFF030EDB6A040EDB6ADF6A5C
:100BE0000A0EDF5C4DE2176ADF34FE0B1736166E15
:100BF000FD0EDB501624E96EFE0EDB501720EA6E68
:100C0000EECF14F0EFCF15F0050EDBCF18F0060E87
:100C1000DBCF19F015501918E8AE02D0193404D002
:100C20001850145C195015580FE2156ADF34FE0B8A
:100C30001536146EFD0EDB501424E96EFE0EDB50EB
:100C40001520EA6EEE6AED6A176ADF34FE0B17367E
:100C5000166EFD0EDB501624E96EFE0EDB501720DB
:100C6000EA6EEECF14F0EFCF15F0D950030FE96E16
:100C7000DACFEAFF1450EE261550ED22DF2AB0D766
:100C8000030EDBCF14F0040EDBCF15F014C0F3FF1E
:100C900015C0F4FF070EE15C03E200D0E16AE55203
:100CA000E16EE552E7CFD9FF1200D9CFE6FFE1CFE1
:100CB000D9FF090EE126030EDB6A040EDB6ADF6A48
:100CC0000A0EDF5C01E3F7D0EA6ADF34FE0BEA3696
:100CD000E96E140EE9260F0EEA22050EEECFDBFFB9
:100CE000060EEDCFDBFFEA6ADF34FE0BEA36E96E73
:100CF000000EE9260F0EEA22070EEECFDBFF080EEC
:100D0000EDCFDBFFDFCFE6FFB5EC00F0E552ABDE69
:100D1000DE52F3CFDEFFF4CFDDFFDD52FC0EDB5001
:100D200001E1A5D0010EDBCF14F0020EDBCF15F0F0
:100D3000070EDBCF16F0080EDBCF17F01750151893
:100D4000E8AE02D0153404D01450165C1550175874
:100D50000DE2070EDBCF08F0080EDBCF09F0DE5204
:100D600008C0DEFF09C0DDFFDD5223D0010EDBCF5E
:100D700014F0020EDBCF15F0050EDBCF16F0060ED9
:100D8000DBCF17F015501718E8AE02D0173404D097
:100D90001650145C175015580CE2050EDBCF08F006
:100DA000060EDBCF09F0DE5208C0DEFF09C0DDFF12
:100DB000DD52050EDBCF14F0060EDBCF15F0D95057
:100DC000010FE96EDACFEAFF1450EE5E1550ED5ACE
:100DD000070EDBCF1CF0080EDBCF1DF0050EDB503D
:100DE0001C5C186E060EDB501D58196E1A6A1B6AC1
:100DF00019AE02D01A681B68010EDBCF14F0020E88
:100E0000DBCF15F0166A176A15AE02D016681768A0
:100E10000B68030E0C6E0D6A0E6A14C006F015C046
:100E200007F016C008F017C009F03AEC14F002C041
:100E300014F003C015F004C016F005C017F014C07C
:100E400006F015C007F016C008F017C009F018C06A
:100E50000BF019C00CF01AC00DF01BC00EF04EECD8
:100E600013F0DE5206C0DEFF07C0DDFFDD52156A5B
:100E7000DF34FE0B1536146EFD0EDB501424E96EC4
:100E8000FE0EDB501520EA6E010EDBCFEEFF020EE8
:100E9000DBCFEDFF010EDBCF14F0020EDBCF15F040
:100EA000D950030FE96EDACFEAFF1450EE26155041
:100EB000ED22DF2A05D7030EDBCF14F0040EDBCFC3
:100EC00015F014C0F3FF15C0F4FF090EE15C03E256
:100ED00000D0E16AE552E16EE552E7CFD9FF12009A
:100EE000D9CFE6FFE1CFD9FF0F0EE126050EDB6A71
:100EF000060EDB6A070EDB6A080EDB6A090EDB6A88
:100F00000A0EDB6A0B0EDB6A0C0EDB6A0D0EDB6A67
:100F10000E0EDB6ADF6ADFCF14F00A0EE76E1418DC
:100F2000E8AE02D0E73402D0E750145C01E37BD096
:100F3000DFCFE6FF12EC01F0E552DE52F3CFDEFF29
:100F4000F4CFDDFFDD52DFCF14F0156A14BE156853
:100F5000D89014361536FD0EDB501424E96EFE0EC3
:100F6000DB501520EA6E030EEECFDBFF040EEDCF53
:100F7000DBFF010EDBCF1CF0020EDBCF1DF01E6A83
:100F80001F6A1DAE02D01E681F68030EDBCF18F06B
:100F9000040EDBCF19F01A6A1B6A19AE02D01A6868
:100FA0001B6818C006F019C007F01AC008F01BC073
:100FB00009F01CC00BF01DC00CF01EC00DF01FC0CE
:100FC0000EF03AEC14F002C014F003C015F004C0A7
:100FD00016F005C017F0D950090FE96EDACFEAFF15
:100FE0001450EE261550EE221650EE221750EE2227
:100FF000030EDBCF14F0040EDBCF15F0166A176A70
:1010000015AE02D016681768D950050FE96EDACF11
:10101000EAFF1450EE261550EE221650EE2217501D
:10102000EE22DF2A78D7090EDBCF14F00A0EDBCFD1
:1010300015F00B0EDBCF16F00C0EDBCF17F014C043
:1010400006F015C007F016C008F017C009F0050E2D
:10105000DBCF0BF0060EDBCF0CF0070EDBCF0DF075
:10106000080EDBCF0EF04EEC13F00D0E06C0DBFFCA
:101070000E0E07C0DBFF0D0EDBCF14F00E0EDBCF24
:1010800015F014C0F3FF15C0F4FF0F0EE15C03E28E
:1010900000D0E16AE552E16EE552E7CFD9FF1200D8
:1010A000D9CFE6FFE1CFD9FF020EE126DE6ADD6A85
:1010B000DECF14F0DDCF15F0D890155004E60A0EFF
:1010C000145C000E155834E2DECF16F0DDCF17F0B9
:1010D000010ED89016361736E806FBE1FB0EDB5002
:1010E0001624146EFC0EDB501720156E14C0E6FF9C
:1010F00015C0E6FFDECF18F0DDCF19F0D890183616
:101100001936FD0EDB501824E96EFE0EDB50192057
:10111000EA6EEECFE6FFEFCFE6FF81EC01F0E5529D
:10112000E552E552E552DF2A010E01E3DB2AC0D782
:10113000020EE15C02E2E16AE552E16EE552E7CFC0
:10114000D9FF1200D9CFE6FFE1CFD9FF020EE12689
:10115000DE6ADD6ADECF14F0DDCF15F0D8901550D1
:1011600004E60A0E145C000E155836E2DECF1AF0C3
:10117000DDCF1BF0010ED8901A361B36E806FBE1D6
:10118000FD0EDB501A24186EFE0EDB501B20196E6C
:1011900018C0E6FF19C0E6FFF0EC01F0E552E55299
:1011A000F3CF16F0F4CF17F0DECF14F0DDCF15F04B
:1011B000D89014361536FB0EDB501424E96EFC0E65
:1011C000DB501520EA6E16C0EEFF17C0EDFFDF2AD8
:1011D000010E01E3DB2ABED7020EE15C02E2E16A06
:1011E000E552E16EE552E7CFD9FF1200200EE66E20
:1011F000E66A000EE66E0F0EE66E52DFE552E5522D
:10120000E552E552340EE66EE66A140EE66E0F0EF7
:10121000E66E46DFE552E552E552E5521200000E59
:10122000E66E0F0EE66E200EE66EE66A8BDFE55286
:10123000E552E552E552140EE66E0F0EE66E340EE0
:10124000E66EE66A7FDFE552E552E552E5521200AE
:101250008150010B00D012008150020B01E0010E01
:1012600000D01200D9CFE6FFE1CFD9FFFE0EDBCFD1
:10127000E6FF29EC16F0E552E552E7CFD9FF120060
:10128000FA0EE66E29EC16F0E5521200FA0EE66E42
:1012900029EC16F0E552FA0EE66E29EC16F0E5524E
:1012A0001200FA0EE66E29EC16F0E552FA0EE66E22
:1012B00029EC16F0E552FA0EE66E29EC16F0E5522E
:1012C000FA0EE66E29EC16F0E5521200EADF51EF55
:1012D00009F0E7DFE6DF51EF09F0FBDFFADF69EF46
:1012E00009F0D9CFE6FFE1CFD9FF020EE126870E44
:1012F000E66E40EC16F0E55233EC05F0F3CFDEFF7E
:10130000F4CFDDFFDECF14F0DDCF15F014C0F3FF16
:1013100015C0F4FF020EE15C03E200D0E16AE55281
:10132000E16EE552E7CFD9FF1200D9CFE6FFE1CF5A
:10133000D9FF020EE126D5DFF3CFDEFFF4CFDDFFCC
:10134000DECF14F0DDCF15F0000E145E020E155A3C
:1013500014C0DEFF15C0DDFFD9CFE9FFDACFEAFF09
:10136000060ED890EE36ED36E806FBE1DECF14F03F
:10137000DDCF15F014C0F3FF15C0F4FF020EE15CE1
:1013800003E200D0E16AE552E16EE552E7CFD9FF12
:1013900012008850200B200A01E0010E146E156A1D
:1013A00014BE156814C0F3FF15C0F4FF00D012007E
:1013B0008150010B010A146E156A14BE156814C021
:1013C000F3FF15C0F4FF00D01200D9CFE6FFE1CF44
:1013D000D9FFFE0EDB508E6EE552E7CFD9FF12002B
:1013E000D9CFE6FFE1CFD9FF060EE12611EC04F0DC
:1013F00032EC04F041EC04F02AEC04F05BEC04F075
:1014000094DFF3CFDEFFF4CFDDFF380EF36E020E74
:10141000F3CFDBFF0E0EF36E030EF3CFDBFFDECF59
:1014200014F0DDCF15F0090E0D6E0E6A14C008F031
:1014300015C009F028EC13F008C014F009C015F02D
:10144000380E14260E0E1522040E14C0DBFF050EF6
:1014500015C0DBFF0C0EE66EE66ADECFE6FFDDCFE1
:10146000E6FF81EC01F0E552E552E552E552E66A0D
:10147000020EDBCFE6FF030EDBCFE6FF52EC03F0FC
:10148000E552E552E552010EE66E040EDBCFE6FFB3
:10149000050EDBCFE6FF52EC03F0E552E552E552D4
:1014A000AFD7060EE15C02E2E16AE552E16EE55279
:1014B000E7CFD9FF1200D9CFE6FFE1CFD9FF060E63
:1014C000E1260C0EE66EE66AF0EC01F0E552E5521C
:1014D000F3CFDEFFF4CFDDFF28EC05F0020EDB6872
:1014E0001F0EF36E030EF3CFDBFFDECF14F0DDCF64
:1014F00015F0040E0D6E0E6A14C008F015C009F048
:1015000028EC13F008C014F009C015F0FF0E1426E3
:101510001F0E1522040E14C0DBFF050E15C0DBFFE5
:10152000E66A020EDBCFE6FF030EDBCFE6FF52ECEE
:1015300003F0E552E552E552010EE66E040EDBCFF4
:10154000E6FF050EDBCFE6FF52EC03F0E552E55275
:10155000E552C4D7060EE15C02E2E16AE552E16EB3
:10156000E552E7CFD9FF1200D9CFE6FFE1CFD9FF8F
:10157000060EE1260C0EE66EE66AF0EC01F0E5528E
:10158000E552F3CFDEFFF4CFDDFFAA0EF36E020EBD
:10159000F3CFDBFF2A0EF36E030EF3CFDBFFDECFBC
:1015A00014F0DDCF15F00D6E0E6A14C008F015C0F2
:1015B00009F028EC13F008C014F009C015F0AA0EC9
:1015C00014262A0E1522040E14C0DBFF050E15C0CA
:1015D000DBFF28EC05F0020EE66E000EE66EE66A12
:1015E00052EC03F0E552E552E5525BDEE66A020E8C
:1015F000DBCFE6FF030EDBCFE6FF52EC03F0E55254
:10160000E552E552010EE66E040EDBCFE6FF050E55
:10161000DBCFE6FF52EC03F0E552E552E55241DE46
:10162000E66A000EE66EE66A52EC03F0E552E55219
:10163000E552010EE66E040EDBCFE6FF050EDBCFB2
:10164000E6FF52EC03F0E552E552E5523FDEE66A72
:10165000020EDBCFE6FF030EDBCFE6FF52EC03F01A
:10166000E552E552E552010EE66E040EDBCFE6FFD1
:10167000050EDBCFE6FF52EC03F0E552E552E552F2
:1016800010DEE66A020EDBCFE6FF030EDBCFE6FFDD
:1016900052EC03F0E552E552E552010EE66E000E03
:1016A000E66EE66A52EC03F0E552E552E5520EDED4
:1016B000E66A020EDBCFE6FF030EDBCFE6FF52EC5D
:1016C00003F0E552E552E552010EE66E040EDBCF63
:1016D000E6FF050EDBCFE6FF52EC03F0E552E552E4
:1016E000E552DFDD78D7060EE15C02E2E16AE55201
:1016F000E16EE552E7CFD9FF1200D9CFE6FFE1CF87
:10170000D9FF060EE12611EC04F032EC04F041ECB6
:1017100004F02AEC04F05BEC04F03BDEF3CFDEFFD8
:10172000F4CFDDFF45DE020EF3CFDBFF030EF4CF77
:10173000DBFFFBDD040EF3CFDBFF050EF4CFDBFF99
:10174000D9CFE9FFDACFEAFFEE50ED1023E0D95010
:10175000020FE96EDACFEAFFEE50ED101BE1E66A08
:10176000040EDBCFE6FF050EDBCFE6FF52EC03F005
:10177000E552E552E552010EE66E000EE66EE66AAF
:1017800052EC03F0E552E552E5520F0EE66E1DDE17
:10179000E5527AD0D9CFE9FFDACFEAFFEE50ED106B
:1017A00023E1D950020FE96EDACFEAFFEE50ED10D7
:1017B0001BE0E66A000EE66EE66A52EC03F0E552C4
:1017C000E552E552010EE66E040EDBCFE6FF050E94
:1017D000DBCFE6FF52EC03F0E552E552E552F00EA6
:1017E000E66EF3DDE55250D0D9CFE9FFDACFEAFF5C
:1017F000EE50ED102DE0D950020FE96EDACFEAFF7E
:10180000EE50ED1025E0E66A040EDBCFE6FF050E94
:10181000DBCFE6FF52EC03F0E552E552E552010E54
:10182000E66E040EDBCF14F0050EDBCF15F0146C62
:10183000151E000E152214C0E6FF15C0E6FF52EC7F
:1018400003F0E552E552E552E668BFDDE5521CD0F3
:10185000E66A040EDBCFE6FF050EDBCFE6FF52ECB7
:1018600003F0E552E552E552010EE66E040EDBCFC1
:10187000E6FF050EDBCFE6FF52EC03F0E552E55242
:10188000E552E66AA2DDE55248D7060EE15C02E2C7
:10189000E16AE552E16EE552E7CFD9FF1200140E7E
:1018A000E66EE66AE66A000EE66E0F0EE66E0FEC76
:1018B00016F0146E050EE15E1450140EE66EE66A24
:1018C000E668140EE66E0F0EE66E0FEC16F0146E60
:1018D000050EE15E14501200D9CFE6FFE1CFD9FF2B
:1018E000040EE126DE6ADD6ADECF14F0DDCF15F0EE
:1018F000D890155004E60A0E145C000E155820E22C
:10190000D950020FE96EDACFEAFF000EEE6E0F0E2D
:10191000ED6EDECF14F0DDCF15F0D890143615360D
:10192000020EDB501424E96E030EDB501520EA6E24
:10193000EE68030EED6EDF2A010E01E3DB2AD4D739
:10194000140EE66EE66AE66A140EE66E0F0EE66E9A
:101950000FEC16F0146E050EE15E1450040EE15CFF
:1019600002E2E16AE552E16EE552E7CFD9FF1200EB
:10197000D9CFE6FFE1CFD9FF040EE126DE6ADD6AAA
:10198000DECF14F0DDCF15F0D890155004E60A0E26
:10199000145C000E15581FE2D950020FE96EDACF21
:1019A000EAFF000EEE6E0F0EED6EDECF14F0DDCF0F
:1019B00015F0D89014361536020EDB501424E96E5B
:1019C000030EDB501520EA6EEE6AED6ADF2A010E87
:1019D00001E3DB2AD5D7DE6ADD6ADECF14F0DDCF86
:1019E00015F0D890155004E60A0E145C000E155838
:1019F00020E2D950020FE96EDACFEAFF140EEE6E44
:101A00000F0EED6EDECF14F0DDCF15F0D89014364A
:101A10001536020EDB501424E96E030EDB50152040
:101A2000EA6EEE68030EED6EDF2A010E01E3DB2A9B
:101A3000D4D7040EE15C02E2E16AE552E16EE552C0
:101A4000E7CFD9FF12000F012E5100D012000F0175
:101A50002D5100D01200D9CFE6FFE1CFD9FF150EEE
:101A6000E126FC0EDBCF14F0FD0EDBCF15F0FE0EF1
:101A7000DBCF16F006D016C0FBFF15C0FAFF1450DE
:101A8000F96EF9DF000901E196D0E66AD950010F3D
:101A9000E66E000EDA20E66E55EC06F0E552E552F1
:101AA000E552DF6A0A0EDF5C01E384D0D950010FF2
:101AB000166EDACF17F0DF50020D1650F324E96EE0
:101AC0001750F420EA6EEECF14F0EFCF15F0EA6A6B
:101AD000DF34FE0BEA36E96E000EE9260F0EEA222D
:101AE000EECF18F0EFCF19F01450185C15501958BC
:101AF0001EE2D950010F166EDACF17F0DF50020D3B
:101B00001650F324E96E1750F420EA6EEECF14F06D
:101B1000EFCF15F0EA6ADF34FE0BEA36E96E000E0D
:101B2000E9260F0EEA2214C0EEFF15C0EDFFD950D2
:101B3000010F166EDACF17F0DF50020D1650F324A6
:101B4000E96E1750F420EA6EEECF14F0EFCF15F0E7
:101B5000EA6ADF34FE0BEA36E96E140EE9260F0E50
:101B6000EA22EECF18F0EFCF19F01850145C19509C
:101B700015581EE2D950010F166EDACF17F0DF505C
:101B8000020D1650F324E96E1750F420EA6EEECFE2
:101B900014F0EFCF15F0EA6ADF34FE0BEA36E96E97
:101BA000140EE9260F0EEA2214C0EEFF15C0EDFF59
:101BB000DF2A78D756D7150EE15C02E2E16AE552DA
:101BC000E16EE552E7CFD9FF1200D9CFE6FFE1CFB2
:101BD000D9FFF50EDBCF14F0F60EDBCF15F0F70EC4
:101BE000DBCF16F0F80EDBCF17F0FD0EDBCFE9FFF1
:101BF000FE0EDBCFEAFF030EEBCFF3FF1750F31817
:101C0000E8AE02D0F33408D0EE50145CEE50155814
:101C1000EE501658EE50175813E2FD0EDBCFE9FFD9
:101C2000FE0EDBCFEAFFF50EDBCFEEFFF60EDBCFCD
:101C3000EEFFF70EDBCFEEFFF80EDBCFEEFF34D07A
:101C4000F90EDBCF14F0FA0EDBCF15F0FB0EDBCF75
:101C500016F0FC0EDBCF17F0FD0EDBCFE9FFFE0E1A
:101C6000DBCFEAFF030EEB501718E8AE02D01734B3
:101C700008D01450EE5C1550EE581650EE58175020
:101C8000EE5812E2FD0EDBCFE9FFFE0EDBCFEAFFDE
:101C9000F90EDBCFEEFFFA0EDBCFEEFFFB0EDBCF54
:101CA000EEFFFC0EDBCFEEFFE552E7CFD9FF1200CF
:101CB000D9CFE6FFE1CFD9FFFD0EDBCFE9FFFE0E66
:101CC000DBCFEAFFEECF14F0EFCF15F0F90EDBCF4C
:101CD00016F0FA0EDBCF17F017501518E8AE02D049
:101CE000153404D01450165C155017580DE2FD0E33
:101CF000DBCFE9FFFE0EDBCFEAFFF90EDBCFEEFF15
:101D0000FA0EDBCFEDFF27D0FD0EDBCFE9FFFE0E95
:101D1000DBCFEAFFEECF14F0EFCF15F0FB0EDBCFF9
:101D200016F0FC0EDBCF17F015501718E8AE02D0F6
:101D3000173404D01650145C175015580CE2FD0EE1
:101D4000DBCFE9FFFE0EDBCFEAFFFB0EDBCFEEFFC2
:101D5000FC0EDBCFEDFFE552E7CFD9FF1200D9CF64
:101D6000E6FFE1CFD9FF050EE126010EDB6A020E88
:101D7000DB6A030EDB6A040EDB6ADF6ADFCF14F076
:101D8000156A14BE1568FB0EDBCF16F0FC0EDBCF18
:101D900017F015501718E8AE02D0173404D01650BB
:101DA000145C1750155825E2DFCF18F0196A18BED9
:101DB0001968D89018361936FD0EDB501824E96ED4
:101DC000FE0EDB501920EA6EEECF14F0EFCF15F0C7
:101DD000166A176AD950010FE96EDACFEAFF14507C
:101DE000EE261550EE221650EE221750EE22DF2A74
:101DF000C5D7010EDBCF14F0020EDBCF15F0030EBA
:101E0000DBCF16F0040EDBCF17F014C006F015C0C0
:101E100007F016C008F017C009F0050EE15C03E2F8
:101E200000D0E16AE552E16EE552E7CFD9FF12003A
:101E3000D9CFE6FFE1CFD9FF080EE126020EDB6A1B
:101E4000030EDB6A040EDB6A050EDB6ADE6ADD6AFE
:101E5000DECF14F0DDCF15F0D890155004E60A0E51
:101E6000145C000E155831E2DECFE9FFDDCFEAFF4A
:101E7000180EEA02F3CFEAFFE902F3CFE9FFF450CC
:101E8000EA26000EE926010EEA22160EE926000EC9
:101E9000EA22EECF14F0EFCF15F0166A176A15AEEE
:101EA00002D016681768D950020FE96EDACFEAFF40
:101EB0001450EE261550EE221650EE221750EE2248
:101EC000DF2A010E01E3DB2AC3D7020EDBCF06F0C7
:101ED000030EDBCF07F0040EDBCF08F0050EDBCFDF
:101EE00009F00A0E0B6E0C6A0D6A0E6A4EEC13F0C6
:101EF000060E06C0DBFF070E07C0DBFF060EDBCFBA
:101F000014F0070EDBCF15F0153404E214502C0842
:101F1000010E155403E2010E14D013D0060EDBCFD0
:101F200014F0070EDBCF15F0D880155004E7D40E5F
:101F3000145CFE0E155803E2FF0E03D002D0000E13
:101F400000D0146E080EE15C02E2E16AE552E16E37
:101F50001450E552E7CFD9FF1200D9CFE6FFE1CF09
:101F6000D9FFE652DF6A0F012A2B000E2B230A0E3F
:101F70002A1901E12B5102E1010EDF6E0A0E0D6EEE
:101F80000E6A2ACF08F02BCF09F057EC16F004C0E8
:101F90002AFF05C02BFFDF5000D0E552E552E7CF06
:101FA000D9FF1200D9CFE6FFE1CFD9FFE652DF6AB1
:101FB000DFCF14F00A0EE76E1418E8AE02D0E73453
:101FC00002D0E750145C2AE2DFCF18F0196A18BE7D
:101FD0001968D89018361936FD0EDB501824E96EB2
:101FE000FE0EDB501920EA6EEECF16F0EFCF17F0A1
:101FF000DFCF14F0156A14BE1568D8901436153664
:10200000FB0EDB501424E96EFC0EDB501520EA6E4B
:1020100016C0EEFF17C0EDFFDF2ACAD7E552E55222
:10202000E7CFD9FF12001200D9CFE6FFE1CFD9FFE9
:10203000080EE126FD0EDBCF14F0FE0EDBCF15F00F
:102040000001800E151410E008680968FD0EDBCF52
:102050000DF0FE0EDBCF0EF082EC13F0FD0E06C08D
:10206000DBFFFE0E07C0DBFFFD0EDBCF06F0FE0E32
:10207000DBCF07F0086A096A07AE02D00868096872
:10208000BC0E0B6E020E0C6E0D6A0E6A3AEC14F06A
:1020900002C0DEFF03C0DEFF04C0DEFF05C0DDFFBF
:1020A000DD52DD52300E186E750E196E1A6A1B6AFB
:1020B000D9CFE9FFDACFEAFFEE50185C146EEE508C
:1020C0001958156EEE501A58166EEE501B58176EB2
:1020D000040E14C0DBFF050E15C0DBFF060E16C094
:1020E000DBFF070E17C0DBFFD950040FE96EDACF14
:1020F000EAFF300EEE26570EEE22000EEE22EE2202
:10210000300EE66E750EE66EE66AE66A780EE66EEC
:10211000690EE66EE66AE66AD950040FE66E000EB6
:10212000DA20E66E52DD146E0A0EE15E1450040EE3
:10213000DBCF14F0050EDBCF15F014C0F3FF15C094
:10214000F4FF080EE15C03E200D0E16AE552E16EC3
:10215000E552E7CFD9FF1200D9CFE6FFE1CFD9FF93
:102160002F0EE126300EF36E160EF3CFDBFF750E49
:10217000F36E170EF3CFDBFF180EDB6A190EDB6A66
:102180001C0EDB6A1D0EDB6A200EDB6A210EDB6A89
:10219000220EDB6A230EDB6A2C0EDB6A2D0EDB6A55
:1021A00028EC05F06CEC0CF0010EE66E29EC03F067
:1021B000E55249DC000910E0B8EC0CF0460EE66E82
:1021C0001A0EE66E000EE66E46DCE552E552E5526A
:1021D0000F01286B296BEDD73ADC000901E121D210
:1021E0000F01286B296B286B296B31DC000901E199
:1021F00017D20F012F5104E0E66A29EC03F0E552F3
:10220000010EE66ED9CFE6FFDACFE6FF55EC06F019
:10221000E552E552E552140EF3CFDBFF150EF4CF75
:10222000DBFF0F012C5101E13ED12D0EDB6A95DE63
:10223000000905E0010EF36E2C0EF3CFDBFF2ACF71
:1022400014F02BCF15F0180E1502F3CF15F0140271
:10225000F3CF14F0F4501526000E1426010E1522AB
:1022600014C0E6FF15C0E6FFD9CFE6FFDACFE6FFE0
:1022700099DEE552E552E552E5522ACF14F02BCF14
:1022800015F0180E1502F3CF15F01402F3CF14F069
:10229000F4501526000E1426010E152214C0E6FF78
:1022A00015C0E6FF70EC07F0E552E5521A0EF3CFC9
:1022B000DBFF1B0EF4CFDBFF2ACFE9FF2BCFEAFFBA
:1022C000180EEA02F3CFEAFFE902F3CFE9FFF45078
:1022D000EA26000EE926010EEA22140EE926000E77
:1022E000EA22140EDBCFEEFF150EDBCFEDFF2ACF77
:1022F000E9FF2BCFEAFF180EEA02F3CFEAFFE9026B
:10230000F3CFE9FFF450EA26000EE926010EEA2297
:10231000160EE926000EEA221A0EDBCFEEFF1B0E88
:10232000DBCFEDFF1A0EDBCFE6FF1B0EDBCFE6FFA8
:102330007BDEE552E552160EF3CFDBFF170EF4CF2E
:10234000DBFF0F01286B296B1A0EDBCF06F01B0E8B
:10235000DBCF07F0086A096A07AE02D0086809688F
:10236000000E066C071E0722081E0822091E0922FD
:10237000780E0B6E0C6A0D6A0E6A3AEC14F0240E9D
:1023800002C0DBFF250E03C0DBFF260E04C0DBFF0F
:10239000270E05C0DBFFE6687F0EE66EE66AE66A9A
:1023A000E66A800EE66EE668E668D950240FE66EAF
:1023B000000EDA20E66EE5EC0DF0146E0A0EE15E1A
:1023C0001450D950240FE96EDACFEAFFD890030EEB
:1023D000EB50000A08E6000EEE5C000EEE58000E10
:1023E000EE58000EEE5830E2160EDBCF18F0170E46
:1023F000DBCF19F01A6A1B6A19AE02D01A681B6883
:10240000D950240FE96EDACFEAFF1850EE24146E8B
:102410001950EE20156E1A50EE20166E1B50EE204D
:10242000176E2A0E14C0DBFF2B0E15C0DBFF160E35
:10243000DBCF08F0170EDBCF09F0280E08C0DBFF5A
:10244000290E09C0DBFF2FD0160EDBCF08F0170EC8
:10245000DBCF09F02A0E08C0DBFF2B0E09C0DBFF23
:10246000160EDBCF18F0170EDBCF19F01A6A1B6AB5
:1024700019AE02D01A681B68D950240FE96EDACF62
:10248000EAFFEE50185C146EEE501958156EEE50BF
:102490001A58166EEE501B58176E280E14C0DBFF2C
:1024A000290E15C0DBFF140EDBCF14F0150EDBCFA9
:1024B00015F0153404E21450DC08050E155404E23E
:1024C0000F01010E2C6F62D00F012C6B2C0EDB5014
:1024D0004CE0AEDCE76E2E0EE7CFDBFF300EF36E86
:1024E000160EF3CFDBFF750EF36E170EF3CFDBFF87
:1024F0002E0EDB5027E0010A14E0FE0A01E034D082
:10250000160EDBCF08F0170EDBCF09F02A0E08C03D
:10251000DBFF2B0E09C0DBFF280EDB6A290EDB6A0E
:1025200023D02A0EDB6A2B0EDB6A160EDBCF08F0F7
:10253000170EDBCF09F0280E08C0DBFF290E09C0FB
:10254000DBFF12D02D0EDB5001E16DDD010EF36ECD
:102550002D0EF3CFDBFF2A0EDB6A2B0EDB6A280E73
:10256000DB6A290EDB6A00D011D02D0EDB5001E1B1
:102570005ADD010EF36E2D0EF3CFDBFF2A0EDB6A60
:102580002B0EDB6A280EDB6A290EDB6A160EDBCF08
:10259000E6FF170EDBCFE6FF180EDBCFE6FF190EC6
:1025A000DBCFE6FFD9502A0FE66E000EDA20E66E8A
:1025B00058EC0EF0146E060EE15E1450160EDBCFD2
:1025C000E6FF170EDBCFE6FF180EDBCFE6FF190E96
:1025D000DBCFE6FFD950280FE66E000EDA20E66E5C
:1025E00058EC0EF0146E060EE15E1450E66A2A0EE8
:1025F000DBCFE6FF2B0EDBCFE6FF52EC03F0E5521C
:10260000E552E552010EE66E280EDBCFE6FF290EFD
:10261000DBCFE6FF52EC03F0E552E552E552E5D59B
:10262000DBD5020EE66E000EE66EE66A52EC03F0B3
:10263000E552E552E552B8D52F0EE15C02E2E16ABF
:10264000E552E16EE552E7CFD9FF1200ACEF10F092
:10265000006A0EAE31EF13F00D6C0E1EE86A0E220A
:10266000001E09AE39EF13F0086C091EE86A092252
:10267000001E57EC16F009BE49EF13F000AE000C37
:10268000086C091EE86A0922046C051EE86A052226
:10269000000C00BE40EF13F00188FF0C006AE86AEE
:1026A0000EAE5BEF13F00B6C0C1E0D1E0E1E0C22FB
:1026B0000D220E22001E09AE66EF13F0066C071EF7
:1026C000081E091E072208220922001E35EC15F0FB
:1026D00009BE7DEF13F000AE000C066C071E081E4D
:1026E000091EE86A072208220922026C031E041E42
:1026F000051E032204220522000C00BE6DEF13F01C
:102700000188FF0C09C013F008C012F008500D0238
:10271000F4CF07F0F3CF06F009500E02F4CF09F022
:10272000F3CF08F00D02F3500726F4500822E86AB0
:10273000092212500E02F3500726F4500822E86ACC
:1027400009220EAEA8EF13F01250085E1350095A7A
:0E27500013AE000C0D50085E0E50095A000C1E
:02275E000E0E5D
:10276000F66E000EF76E000EF86E01010900F550CE
:10277000F56F0900F550F66F03E1F56701D03DD024
:102780000900F550F06F0900F550F16F0900F550A0
:10279000F26F09000900F550E96E0900F550EA6E84
:1027A000090009000900F550F36F0900F550F46FB6
:1027B00009000900F6CFF7F1F7CFF8F1F8CFF9F1FA
:1027C000F0C1F6FFF1C1F7FFF2C1F8FF0101F353C9
:1027D00002E1F45307E00900F550EE6EF307F8E26A
:1027E000F407F9D7F7C1F6FFF8C1F7FFF9C1F8FF11
:0C27F0000101F507000EF65BBFD71200D8
:0427FC00D9CFE6FF4C
:10280000DACFE6FFE1CFD9FFE2CFDAFFE652DF6AA7
:10281000FD0EDBCF15F015C014F0030E1514AA6ED3
:10282000FF0EE76EFC0EDBCF14F0E7501416156AAE
:102830001450A96EFB0EDB50A86EA69EA69CA68423
:10284000F250800B01E0010EDF6EF29E550EA76E76
:10285000AA0EA76EA682A6B2FED7DF50E8B0F28E0F
:10286000E8A0F29EA694E552E552E5CFDAFFE7CF65
:04287000D9FF12007A
:0C28740006500B02F3CF02F0F4CF03F08B
:102880000C02F3500326000EF420046E06500D02D5
:10289000F3500426000EF420056E06500E02F3508D
:1028A000052607500B02F3500326F4500422000EB5
:1028B000052207500C02F3500426F450052207505D
:1028C0000D02F350052608500B02F3500426F45075
:1028D000052208500C02F350052609500B02F35054
:0428E00005261200B7
:0C28E400D9CFE6FFDACFE6FFE1CFD9FF45
:1028F000E2CFDAFFC26AC06AFC0EDB407F0B3C0B02
:10290000C26EFC0EDB38F00B300B146EFB0EDB508E
:102910000F0B1410C16EFD0EDB50040DF350380B7D
:10292000156EFD0EDB380F0B070B146EFD0EDB5022
:10293000800B14101510C06EFC0EDBAE03D09E9CF5
:102940009D8CF28CC280E552E5CFDAFFE7CFD9FF4C
:02295000120073
:0E295200D9CFE6FFDACFE6FFE1CFD9FFE2CF23
:10296000DAFFE652E652FC0EDBCF14F0FD0EDBCFB1
:1029700015F0060ED89014361536E804FBE114C0A5
:10298000DEFF15C0DDFF010EDB50716EDF50E84049
:10299000E8403F0B300B146ECF0E70141410706EA5
:1029A000E552E552E552E5CFDAFFE7CFD9FF120055
:1029B000D9CFE6FFDACFE6FFE1CFD9FFE2CFDAFFEA
:1029C000E652E652FC0EDBCF14F0FD0EDBCF15F025
:1029D000060ED89014361536E804FBE114C0DEFF6D
:1029E00015C0DDFF010EDB50746EDF50E840E8409B
:1029F0003F0B300B146ECF0E73141410736EE55230
:0E2A0000E552E552E5CFDAFFE7CFD9FF12002D
:022A0E00D9CF1E
:102A1000E6FFDACFE6FFE1CFD9FFE2CFDAFFFC0E27
:102A2000DBCF14F0FD0EDBCF15F015C014F0156AE6
:102A3000030E1414AA6EFF0EE76EFC0EDBCF14F02B
:102A4000FD0EDBCF15F0E7501416156A1450A96E71
:102A5000A69CA69EA68000000000A85000D0E552CB
:0A2A6000E5CFDAFFE7CFD9FF12003F
:062A6A00056A046A036A1C
:102A7000026A200EE76ED890063607360836093609
:102A800002360336043605360B50025C0C500358F0
:102A90000D5004580E50055809E30B50025E0C50BF
:102AA000035A0D50045A0E50055A062AE72EE4D751
:022AB000120012
:0E2AB200D9CFE6FFDACFE6FFE1CFD9FFE2CFC2
:102AC000DAFF0C0E706EB150400B09E1B150080BEB
:102AD00006E1CA94FD0EDB50CB6ECA8405D0769415
:102AE000FD0EDB50776E76849898E552E5CFDAFFDD
:062AF000E7CFD9FF120040
:0A2AF600D9CFE6FFDACFE6FFE1CF0B
:102B0000D9FFE2CFDAFF0C0E736E9896B150400BEE
:102B100009E1B150080B06E1CA94FD0EDB50CB6E03
:102B2000CA8405D07694FD0EDB50776E7684E5522C
:0A2B3000E5CFDAFFE7CFD9FF12006E
:062B3A00D9CFE6FFDACF5F
:102B4000E6FFE1CFD9FFE2CFDAFFE652E652D650F8
:102B5000DF6E010ED7CFDBFFDECF14F0DDCF15F037
:102B600014C0F3FF15C0F4FFE552E552E552E5CF7E
:082B7000DAFFE7CFD9FF1200E4
:082B7800D9CFE6FFDACFE6FF3A
:102B8000E1CFD9FFE2CFDAFFE652E652FC0EDBCF0F
:102B9000DEFFDBCFDDFF010EDB50D76EDF50D66EE0
:102BA000E552E552E552E5CFDAFFE7CFD9FF120053
:102BB000D9CFE6FFDACFE6FFE1CFD9FFE2CFDAFFE8
:102BC000FD0EDB507F0BD56ED76AD66AF294FD0EF0
:102BD000DBAE02D0F28A01D0F29AD58EE552E5CF73
:082BE000DAFFE7CFD9FF120074
:082BE800D9CFE6FFDACFE6FFCA
:102BF000E1CFD9FFE2CFDAFFFD0EDB50FB0BCA6E4F
:102C0000CC6A9E92FD0EDBAE02D09D8201D09D92D9
:0E2C1000CA84E552E5CFDAFFE7CFD9FF120004
:022C1E00FE0EA8
:102C2000E3CFE9FFFF0EE3CFEAFFE9CFF3FFEACFFF
:102C3000F4FFFB0EE35003E1FC0EE35009E0FB0E52
:102C4000E30602E2FC0EE306FD0EE350EE6EF1D762
:022C5000120070
:0E2C5200FF0EE350216EEF0E01D0F30EE76E81
:102C6000E72E30EF16F00C0E206EE76AE72E36EFF7
:102C700016F0202E35EF16F0212E2EEF16F0120052
:102C8000D9CFE6FFDACFE6FFE1CFD9FFE2CFDAFF17
:102C9000C30EC214146EFD0EDB407F0B3C0B1410F0
:0E2CA000C26EE552E5CFDAFFE7CFD9FF120092
:022CAE00056AB5
:102CB000046A100EE76ED8900836093604360536D9
:102CC0000D50045C0E50055805E30D50045E0E5087
:0A2CD000055A082AE72EF0D712007B
:062CDA00600EF36E00EE37
:102CE00000F00F0E01D81200EA6002D0EE6AFCD7A5
:0A2CF000F350E9601200EE6AFCD711
:062CFA001EEE00F02EEEBC
:102D000000F0F86A019CAFEC13F003EC00F026EC45
:062D100013F0FBD71200D6
:0A2D1600C450176E166AC350161061
:082D2000F36E17C0F4FF12006E
:082D2800C250020B01E0010E94
:022D300012008F
:062D3200D59EF29A12008A
:062D3800A6B2FED7120056
:022D3E00C2824F
:022D400012007F
:082D4200000001000000000088
:020000040030CA
:0100010006F8
:0100020019E4
:010003001EDE
:01000400F308
:010005008377
:010006008079
:01000800FFF8
:01000900C036
:01000A00FFF6
:01000B00E014
:01000C00FFF4
:01000D0040B2
:00000001FF
